S00E00007461736B31312E7372656301
S11300000C9434000C943E000C943E000C943E007E
S11300100C943E000C943E000C943E000C943E0064
S11300200C943E000C943E000C943E000C943E0054
S11300300C943E000C943E000C943E000C943E0044
S11300400C943E000C943E000C943E000C943E0034
S11300500C943E000C943E000C943E000C943E0024
S11300600C943E000C943E0011241FBECFEFD8E048
S1130070DEBFCDBF0E9440000C9477000C940000BA
S1130080EAE7F0E0808180688083519A529A539A1B
S1130090ECE7F0E0808185648083EAE7F0E0C8E77C
S11300A0D0E0A9E7B0E0808180648083808188818A
S11300B02C9190E0922B8C3221E0920720F45998F5
S11300C05A985B98599A9C012D5231402B323140F9
S11300D020F459985A985B985A9A895592408B32D1
S11300E0914008F759985A985B985B9ADCCFF8943A
S10500F0FFCF3C
S9030000FC
