:100000000C9434000C943E000C943E000C943E0082
:100010000C943E000C943E000C943E000C943E0068
:100020000C943E000C943E000C943E000C943E0058
:100030000C943E000C943E000C943E000C943E0048
:100040000C943E000C943E000C943E000C943E0038
:100050000C943E000C943E000C943E000C943E0028
:100060000C943E000C943E0011241FBECFEFD8E04C
:10007000DEBFCDBF0E9450000C9453000C940000D2
:10008000569A559A84B5806F84BD84B5816084BDCD
:1000900085B5816085BD88EC87BD88E588BD0895FC
:0A00A0000E944000FFCFF894FFCF4C
:00000001FF
