S00D00007461736B382E737265632C
S11300000C9434000C9449000C9449000C9449005D
S11300100C9449000C9449000C9449000C94490038
S11300200C9449000C9449000C9449000C94490028
S11300300C9449000C9449000C9449000C94490018
S11300400C9449000C9449000C9449000C94490008
S11300500C9449000C9449000C9449000C944900F8
S11300600C9449000C94490011241FBECFEFD8E032
S1130070DEBFCDBF11E0A0E0B1E0EEEAF0E002C0E7
S113008005900D92A030B107D9F70E944B000C9453
S113009055000C94000016BC85E085BD92E0A89B39
S11100A0FECF8BB189278BB9FACFF894FFCF2E
S9030000FC
