S00D00007461736B392E737265632B
S11300000C9434000C943E000C943E000C943E007E
S11300100C943E000C943E000C943E000C943E0064
S11300200C943E000C943E000C943E000C943E0054
S11300300C943E000C943E000C9452000C943E0030
S11300400C9440000C943E000C943E000C943E0032
S11300500C943E000C943E000C943E000C943E0024
S11300600C943E000C943E0011241FBECFEFD8E048
S1130070DEBFCDBF0E9471000C9474000C9400008C
S11300801F920F920FB60F9211248F939F939BB1DF
S113009082E089278BB99F918F910F900FBE0F90AB
S11300A01F9018951F920F920FB60F9211248F93E1
S11300B09F939BB182E089278BB99F918F910F9079
S11300C00FBE0F901F901895519A599881E185BDE4
S11300D0EEE6F0E080818360808388EC87BD7894CD
S10F00E008950E946400FFCFF894FFCF45
S9030000FC
