S00E00007461736B31322E7372656300
S11300000C9434000C943E000C943E000C943E007E
S11300100C943E000C943E000C943E000C943E0064
S11300200C943E000C943E000C943E000C943E0054
S11300300C943E000C943E000C943E000C943E0044
S11300400C943E000C943E000C943E000C943E0034
S11300500C943E000C943E000C943E000C943E0024
S11300600C943E000C943E0011241FBECFEFD8E048
S1130070DEBFCDBF0E9453000C9467000C940000B7
S11300808CB580648CBD8CB588618CBD8CB58F7744
S11300908CBD8CB58F7D8CBD8CB58B7F8CBD84B1B4
S11300A0886684B908950E94400080E02E988EBD31
S11300B00DB407FEFDCF9EB52E9AE3ECF9E031971F
S11300C0F1F700C000008F5F8F3F81F7EECFF89407
S10500D0FFCF5C
S9030000FC
