:100000000C9434000C943E000C943E000C943E0082
:100010000C943E000C943E000C943E000C943E0068
:100020000C943E000C943E000C943E000C943E0058
:100030000C943E000C943E000C943E000C943E0048
:100040000C943E000C943E000C943E000C943E0038
:100050000C943E000C943E000C943E000C943E0028
:100060000C943E000C943E0011241FBECFEFD8E04C
:10007000DEBFCDBF0E9453000C946A000C940000B8
:100080008CB580648CBD8CB588618CBD8CB58F7748
:100090008CBD8CB58F7D8CBD8CB58B7F8CBD84B1B8
:1000A0008C6684B908950E94400080E02E988EBD31
:1000B0000DB407FEFDCF9EB52E9A2FE33DE093E0F1
:1000C000215030409040E1F700C000008F5F8F3F2B
:0800D00069F7EBCFF894FFCFB4
:00000001FF
